:03000000020BC22E
:0C0BC200787FE4F6D8FD75813F020C0935
:100D4E00202020205345542054494D45202020205A
:100D5E000048483A002020004D4D3A0053533A00C7
:100D6E002020202053455420414C41524D2020201C
:0A0D7E00200057656C636F6D65007F
:100EEB0002240000021600000C1831323334353660
:060EFB003738392A3023CC
:100A5500120A678F38120E4FE53824D075F00AA4B4
:020A6500F53862
:100A6700C283C282C281C280D286D285D2843084B8
:100A7700063085032086F7308406308503208652AA
:100A8700C280D283D282D281308406308503208609
:100A970004E4FF803DC281D283D282D280308406B3
:100AA7003085032086047F018028C282D283D281C9
:100AB700D2803084063085032086047F028013C2EB
:100AC70083D280D282D2813084063085032086A7E4
:100AD7007F0320840A308507308604E4FE801820CF
:100AE700850A3084073086047E01800B2086083013
:100AF70085053084027E023084FD3085FA3086F722
:0B0B0700EF75F003A424182EF8E6FFA1
:010B120022C0
:090DE6007F20120E4F7F647E0095
:100DEF00E4FDFCC3ED9FEC9E5015E4FBFA0BBB003A
:0F0DFF00010ABA04F8BBFBF50DBD00010C80E43E
:010E0E0022C1
:080ED400C2B6D2B77F0A7E000E
:0F0EDC00E4FEFF0FBF00010EBE04F8BFFBF522BE
:070F02007F01120F097F803F
:0A0F09008F90C2B5120ED4C2B722B9
:100EB6007F38120F097F0E120F097F01120F097F6B
:0E0EC60006120F097F0C120F097F80020F0920
:100E3800120A678F38120E4FE53824D075F00AA4CD
:070E4800F538120A678F392B
:0A0E4F008F90D2B5120ED4C2B72264
:100CD300AB07AA067C0E7D101209218E268F277C76
:100CE3000E7D10AF03AE02120921AA04AB057C00EE
:100CF3007D3CAF03AE021209218E288F297C007D33
:0F0D03003CAF03AE02120921AB058C2A8B2B22C9
:100E5900AB07AA067C007D0A1209218E0E8F0FAE00
:0F0E690002AF037C007D0A1209218C0C8D0D2233
:100E7800AB07AA067C007D0A1209218E0A8F0BAEE9
:0F0E880002AF037C007D0A1209218C088D09221C
:100E9700AB07AA067C007D0A1209218E2E8F2FAE82
:0F0EA70002AF037C007D0A1209218C2C8D2D22B5
:040D1200AB07AA067B
:100D16007C007D0A120921EFFD3395E0FCED2430BD
:100D2600FDE43CFCC3ED9431EC648094804007EF15
:100D36002430FF120E4FAE02AF037C007D0A12096B
:080D460021ED2430FF020E4FE5
:0B0D88007FC9120F097BFF7A0D796311
:100D93008B3D8A3E893FAB3DAA3EA93F1208F660D0
:100DA30013053FE53F7002053E14F91208F6FF12E2
:050DB3000E4F80E2225A
:100DB8008E3D8F3EAE04AF057C007D3C12090F8E40
:100DC800838F82AE3DAF3E7C0E7D1012090FEF255A
:0E0DD80082FFEE3583CF2BF525EF3AF524226E
:100E0F00AB07AA06AE04AF057C007D3C12090F8E1E
:100E1F00838F82AE02AF037C0E7D1012090FEF2578
:090E2F0082F517EE3583F5162259
:100B1300120F027BFF7A0D794E802F7FC0120F09CF
:100B23007BFF7A0D795F120D93120E3874D025393D
:100B3300F5392538F53AD394177480948040107FA3
:100B4300C3120F097BFF7A0D7963120D9380CC12C8
:100B53000DE67FC6120F097BFF7A0D7966120D939E
:100B6300120E3874D02539F5392538F53CD3943B2A
:100B7300748094804005120D8880D7120DEB7FCBD3
:100B8300120F097BFF7A0D796A120D93120E3874D6
:100B9300D02539F5392538F53BD3943B74809480BF
:100BA30040077FCE120D8A80D5AF3A7E00AD3C7CE4
:0F0BB30000AB3B7A00120DB87F647E00020DEF9D
:100C4E00120F027BFF7A0D796E80347FC0120F096E
:100C5E007BFF7A0D795F120D93120A558F39120EA2
:100C6E004F74D02539F5392538F53AD39417748059
:100C7E00948040107FC3120F097BFF7A0D796312A7
:100C8E000D9380C7120DE67FC6120F097BFF7A0DFA
:100C9E007966120D93120A558F39120E4F74D025A4
:100CAE0039F5392538FDD3943B7480948040051274
:100CBE000D8880D3AF3A7E007C00120E0F120DEB22
:050CCE007F01020F0987
:1009760078307C007D007BFF7A0D79807E007F08D1
:100986001208D0E4FDFCD2B0120EB674302DF8E693
:10099600FF120E4F7F647E00120EDC0DBD00010CAF
:1009A600ED64074C70E57FE87E03120EDC7F0112D2
:1009B6000F09120B137F01120F0920B103120B133B
:1009C60020B203120C4EE517B52507E516B524022D
:1009D600C2B020B01CC3E5259517FFE5249516FE89
:1009E600C3EF9405EE648094805004C2B08002D2B6
:1009F600B0AF25AE24120CD3AF27AE26120E97AF9A
:100A060029AE28120E78AF2BAE2A120E59AF2FAE92
:100A16002E120D12AF2DAE2C120D127F3A120E4F62
:100A2600AF0BAE0A120D12AF09AE08120D127F3AC5
:100A3600120E4FAF0FAE0E120D12AF0DAE0C120D01
:0F0A460012120DEB0525E525700205240209BBF0
:100BCE00020976E493A3F8E493A34003F68001F2BE
:100BDE0008DFF48029E493A3F85407240CC8C33328
:100BEE00C4540F4420C8834004F456800146F6DFF7
:100BFE00E4800B0102040810204080900EEBE47E8E
:100C0E00019360BCA3FF543F30E509541FFEE493EB
:100C1E00A360010ECF54C025E060A840B8E493A3B2
:100C2E00FAE493A3F8E493A3C8C582C8CAC583CADD
:100C3E00F0A3C8C582C8CAC583CADFE9DEE780BE95
:010F010000EF
:10080000E709F608DFFA8046E709F208DFFA803EDA
:1008100088828C83E709F0A3DFFA8032E309F608C7
:10082000DFFA8078E309F208DFFA807088828C832F
:10083000E309F0A3DFFA806489828A83E0A3F608E3
:10084000DFFA805889828A83E0A3F208DFFA804CBD
:1008500080D280FA80C680D4806980F28033801094
:1008600080A680EA809A80A880DA80E280CA8033FD
:1008700089828A83ECFAE493A3C8C582C8CCC58375
:10088000CCF0A3C8C582C8CCC583CCDFE9DEE78045
:100890000D89828A83E493A3F608DFF9ECFAA9F0C4
:1008A000EDFB2289828A83ECFAE0A3C8C582C8CC1A
:1008B000C583CCF0A3C8C582C8CCC583CCDFEADE33
:1008C000E880DB89828A83E493A3F208DFF980CC95
:1008D00088F0EF60010E4E60C388F0ED2402B4048E
:1008E0000050B9F582EB2402B4040050AF23234535
:0608F00082239008507302
:1008F600BB010689828A83E0225002E722BBFE0200
:09090600E32289828A83E4932232
:10090F00EF8DF0A4A8F0CF8CF0A428CE8DF0A42EFC
:02091F00FE22B6
:10092100BC000BBE0029EF8DF084FFADF022E4CCBA
:10093100F875F008EF2FFFEE33FEEC33FCEE9DEC83
:10094100984005FCEE9DFE0FD5F0E9E4CEFD22EDC9
:10095100F8F5F0EE8420D21CFEADF075F008EF2F13
:10096100FFED33FD4007985006D5F0F222C398FD04
:050971000FD5F0EA22A1
:00000001FF
