:0300000002096F83
:0C096F00787FE4F6D8FD7581160208F6CA
:0F096000613761206C6F6C2066652061796800DB
:08094900C2B6D2B77F0A7E009E
:0F095100E4FEFF0FBF00010EBE04F8BFFBF5224E
:0A097B008F90C2B5120949C2B722DD
:10092B007F3812097B7F0E12097B7F0112097B7FB7
:0E093B000612097B7F0C12097B7F8002097B6C
:0A0985008F90D2B5120949C2B722C3
:1008F60078087C007D007BFF7A0979607E007F0F97
:100906001208D012092BE4FDFC74082DF8E6FF123C
:1009160009857F647E001209510DBD00010CED644E
:04092600104C70E51C
:01092A0022AA
:10080000E709F608DFFA8046E709F208DFFA803EDA
:1008100088828C83E709F0A3DFFA8032E309F608C7
:10082000DFFA8078E309F208DFFA807088828C832F
:10083000E309F0A3DFFA806489828A83E0A3F608E3
:10084000DFFA805889828A83E0A3F208DFFA804CBD
:1008500080D280FA80C680D4806980F28033801094
:1008600080A680EA809A80A880DA80E280CA8033FD
:1008700089828A83ECFAE493A3C8C582C8CCC58375
:10088000CCF0A3C8C582C8CCC583CCDFE9DEE78045
:100890000D89828A83E493A3F608DFF9ECFAA9F0C4
:1008A000EDFB2289828A83ECFAE0A3C8C582C8CC1A
:1008B000C583CCF0A3C8C582C8CCC583CCDFEADE33
:1008C000E880DB89828A83E493A3F208DFF980CC95
:1008D00088F0EF60010E4E60C388F0ED2402B4048E
:1008E0000050B9F582EB2402B4040050AF23234535
:0608F00082239008507302
:00000001FF
